{"src/Campaign.sol":{"Campaign":{"abi":[{"inputs":[{"internalType":"address","name":"_brand","type":"address"},{"internalType":"address","name":"_pyusdToken","type":"address"},{"internalType":"uint256","name":"_startTime","type":"uint256"},{"internalType":"uint256","name":"_endTime","type":"uint256"},{"internalType":"uint256","name":"_maxPayoutPerReview","type":"uint256"},{"internalType":"uint256","name":"_maxParticipants","type":"uint256"},{"internalType":"bytes32","name":"_rulesHash","type":"bytes32"}],"stateMutability":"nonpayable","type":"constructor"},{"inputs":[],"name":"AlreadyParticipated","type":"error"},{"inputs":[],"name":"CampaignNotActive","type":"error"},{"inputs":[],"name":"CampaignNotEnded","type":"error"},{"inputs":[],"name":"InsufficientBudget","type":"error"},{"inputs":[],"name":"InvalidAmount","type":"error"},{"inputs":[],"name":"MaxParticipantsReached","type":"error"},{"inputs":[],"name":"TransferFailed","type":"error"},{"inputs":[],"name":"Unauthorized","type":"error"},{"anonymous":false,"inputs":[{"indexed":false,"internalType":"uint256","name":"amount","type":"uint256"},{"indexed":false,"internalType":"uint256","name":"newTotal","type":"uint256"}],"name":"BudgetDeposited","type":"event"},{"anonymous":false,"inputs":[{"indexed":true,"internalType":"address","name":"brand","type":"address"},{"indexed":false,"internalType":"uint256","name":"amount","type":"uint256"}],"name":"BudgetWithdrawn","type":"event"},{"anonymous":false,"inputs":[],"name":"CampaignEnded","type":"event"},{"anonymous":false,"inputs":[{"indexed":true,"internalType":"address","name":"user","type":"address"},{"indexed":false,"internalType":"uint256","name":"amount","type":"uint256"},{"indexed":false,"internalType":"uint256","name":"score","type":"uint256"}],"name":"RewardPaid","type":"event"},{"inputs":[],"name":"brand","outputs":[{"internalType":"address","name":"","type":"address"}],"stateMutability":"view","type":"function"},{"inputs":[{"internalType":"uint256","name":"amount","type":"uint256"}],"name":"depositBudget","outputs":[],"stateMutability":"nonpayable","type":"function"},{"inputs":[],"name":"endCampaign","outputs":[],"stateMutability":"nonpayable","type":"function"},{"inputs":[],"name":"endTime","outputs":[{"internalType":"uint256","name":"","type":"uint256"}],"stateMutability":"view","type":"function"},{"inputs":[],"name":"getCampaignInfo","outputs":[{"internalType":"address","name":"_brand","type":"address"},{"internalType":"uint256","name":"_totalBudget","type":"uint256"},{"internalType":"uint256","name":"_remainingBudget","type":"uint256"},{"internalType":"uint256","name":"_totalPaidOut","type":"uint256"},{"internalType":"uint256","name":"_participantCount","type":"uint256"},{"internalType":"uint256","name":"_maxParticipants","type":"uint256"},{"internalType":"uint256","name":"_startTime","type":"uint256"},{"internalType":"uint256","name":"_endTime","type":"uint256"},{"internalType":"bool","name":"_isActive","type":"bool"}],"stateMutability":"view","type":"function"},{"inputs":[{"internalType":"address","name":"","type":"address"}],"name":"hasParticipated","outputs":[{"internalType":"bool","name":"","type":"bool"}],"stateMutability":"view","type":"function"},{"inputs":[],"name":"isActive","outputs":[{"internalType":"bool","name":"","type":"bool"}],"stateMutability":"view","type":"function"},{"inputs":[],"name":"maxParticipants","outputs":[{"internalType":"uint256","name":"","type":"uint256"}],"stateMutability":"view","type":"function"},{"inputs":[],"name":"maxPayoutPerReview","outputs":[{"internalType":"uint256","name":"","type":"uint256"}],"stateMutability":"view","type":"function"},{"inputs":[],"name":"participantCount","outputs":[{"internalType":"uint256","name":"","type":"uint256"}],"stateMutability":"view","type":"function"},{"inputs":[{"internalType":"address","name":"user","type":"address"},{"internalType":"uint256","name":"score","type":"uint256"}],"name":"payReward","outputs":[],"stateMutability":"nonpayable","type":"function"},{"inputs":[],"name":"pyusdToken","outputs":[{"internalType":"address","name":"","type":"address"}],"stateMutability":"view","type":"function"},{"inputs":[],"name":"remainingBudget","outputs":[{"internalType":"uint256","name":"","type":"uint256"}],"stateMutability":"view","type":"function"},{"inputs":[],"name":"rulesHash","outputs":[{"internalType":"bytes32","name":"","type":"bytes32"}],"stateMutability":"view","type":"function"},{"inputs":[],"name":"startTime","outputs":[{"internalType":"uint256","name":"","type":"uint256"}],"stateMutability":"view","type":"function"},{"inputs":[],"name":"totalBudget","outputs":[{"internalType":"uint256","name":"","type":"uint256"}],"stateMutability":"view","type":"function"},{"inputs":[],"name":"totalPaidOut","outputs":[{"internalType":"uint256","name":"","type":"uint256"}],"stateMutability":"view","type":"function"},{"inputs":[{"internalType":"address","name":"","type":"address"}],"name":"userRewards","outputs":[{"internalType":"uint256","name":"","type":"uint256"}],"stateMutability":"view","type":"function"},{"inputs":[],"name":"withdrawRemainder","outputs":[],"stateMutability":"nonpayable","type":"function"}],"evm":{"bytecode":{"linkReferences":{},"object":"61016060405234801561001157600080fd5b506040516200112b3803806200112b833981016040819052610032916101c7565b6001600160a01b03871661008d5760405162461bcd60e51b815260206004820152601560248201527f496e76616c6964206272616e642061646472657373000000000000000000000060448201526064015b60405180910390fd5b6001600160a01b0386166100e35760405162461bcd60e51b815260206004820152601560248201527f496e76616c696420746f6b656e206164647265737300000000000000000000006044820152606401610084565b8385106101275760405162461bcd60e51b8152602060048201526012602482015271496e76616c69642074696d652072616e676560701b6044820152606401610084565b6000831161016c5760405162461bcd60e51b8152602060048201526012602482015271125b9d985b1a59081b585e081c185e5bdd5d60721b6044820152606401610084565b6001600160a01b039687166080529490951660a05260c09290925260e0526101005261012091909152610140526004805460ff19166001179055610229565b80516001600160a01b03811681146101c257600080fd5b919050565b600080600080600080600060e0888a0312156101e257600080fd5b6101eb886101ab565b96506101f9602089016101ab565b604089015160608a015160808b015160a08c015160c0909c01519a9d939c50919a90999198509650945092505050565b60805160a05160c05160e051610100516101205161014051610e296200030260003960006102f301526000818161018401528181610354015261082001526000818161022f015261086a0152600081816101ea01528181610398015281816107a40152610aa501526000818161025e01528181610376015261077b0152600081816102a90152818161048c015281816109850152610b5f0152600081816101ab01528181610332015281816104190152818161069c0152818161071901528181610a6601528181610b2e0152610bec0152610e296000f3fe608060405234801561001057600080fd5b50600436106101215760003560e01c806371aac7f9116100ad578063917630091161007157806391763009146102a4578063b4fb3ee3146102cb578063c76f9c16146102ee578063c78da39a14610315578063d6290cd71461031e57600080fd5b806371aac7f91461025157806378e979251461025957806388177a23146102805780638b8afcd7146102895780638b9b1cbd1461029c57600080fd5b80632d9fff01116100f45780632d9fff01146101a65780633197cbb6146101e5578063362f04c01461020c5780633e2f2e92146102155780636b90a5221461022a57600080fd5b80630660f1e8146101265780631357e1dc1461015957806322f3e2d41461016257806324924bf71461017f575b600080fd5b610146610134366004610c96565b60056020526000908152604090205481565b6040519081526020015b60405180910390f35b61014660025481565b60045461016f9060ff1681565b6040519015158152602001610150565b6101467f000000000000000000000000000000000000000000000000000000000000000081565b6101cd7f000000000000000000000000000000000000000000000000000000000000000081565b6040516001600160a01b039091168152602001610150565b6101467f000000000000000000000000000000000000000000000000000000000000000081565b61014660035481565b610228610223366004610cb8565b61040e565b005b6101467f000000000000000000000000000000000000000000000000000000000000000081565b610228610691565b6101467f000000000000000000000000000000000000000000000000000000000000000081565b61014660015481565b610228610297366004610cd1565b61070e565b610228610a5b565b6101cd7f000000000000000000000000000000000000000000000000000000000000000081565b61016f6102d9366004610c96565b60066020526000908152604090205460ff1681565b6101467f000000000000000000000000000000000000000000000000000000000000000081565b61014660005481565b6103be6000546001546002546003546004547f0000000000000000000000000000000000000000000000000000000000000000957f0000000000000000000000000000000000000000000000000000000000000000917f0000000000000000000000000000000000000000000000000000000000000000917f00000000000000000000000000000000000000000000000000000000000000009160ff1690565b604080516001600160a01b03909a168a5260208a0198909852968801959095526060870193909352608086019190915260a085015260c084015260e0830152151561010082015261012001610150565b336001600160a01b037f00000000000000000000000000000000000000000000000000000000000000001614610456576040516282b42960e81b815260040160405180910390fd5b806000036104775760405163162908e360e11b815260040160405180910390fd5b6040516370a0823160e01b81523060048201527f0000000000000000000000000000000000000000000000000000000000000000906000906001600160a01b038316906370a0823190602401602060405180830381865afa1580156104e0573d6000803e3d6000fd5b505050506040513d601f19601f820116820180604052508101906105049190610cfb565b6040516323b872dd60e01b8152336004820152306024820152604481018590529091506001600160a01b038316906323b872dd906064016020604051808303816000875af115801561055a573d6000803e3d6000fd5b505050506040513d601f19601f8201168201806040525081019061057e9190610d14565b6105a35760405162461bcd60e51b815260040161059a90610d36565b60405180910390fd5b6040516370a0823160e01b81523060048201526000906001600160a01b038416906370a0823190602401602060405180830381865afa1580156105ea573d6000803e3d6000fd5b505050506040513d601f19601f8201168201806040525081019061060e9190610cfb565b9050600061061c8383610d75565b90508060008082825461062f9190610d8e565b9250508190555080600160008282546106489190610d8e565b90915550506000546040805183815260208101929092527f7fa8170314b2ec131ba6754af9b3e7428a0bd93e1f6f31356422785f25cebedd910160405180910390a15050505050565b336001600160a01b037f000000000000000000000000000000000000000000000000000000000000000016146106d9576040516282b42960e81b815260040160405180910390fd5b6004805460ff191690556040517f553ae054398f4abd9ec5710b0d247eaa1cd982245798110d0ceb48f43e37030990600090a1565b336001600160a01b037f00000000000000000000000000000000000000000000000000000000000000001614610756576040516282b42960e81b815260040160405180910390fd5b60045460ff166107795760405163219a945b60e11b815260040160405180910390fd5b7f00000000000000000000000000000000000000000000000000000000000000004210806107c657507f000000000000000000000000000000000000000000000000000000000000000042115b156107e45760405163219a945b60e11b815260040160405180910390fd5b6001600160a01b03821660009081526006602052604090205460ff161561081e576040516322ce1a0760e01b815260040160405180910390fd5b7f00000000000000000000000000000000000000000000000000000000000000006003541061086057604051636c8c8d2160e01b815260040160405180910390fd5b6000606461088e837f0000000000000000000000000000000000000000000000000000000000000000610da1565b6108989190610db8565b90506001548111156108bd57604051634dd23c8b60e01b815260040160405180910390fd5b806000036108de5760405163162908e360e11b815260040160405180910390fd5b6001600160a01b0383166000908152600660205260408120805460ff19166001179055600380549161090f83610dda565b90915550506001600160a01b038316600090815260056020526040812082905560018054839290610941908490610d75565b92505081905550806002600082825461095a9190610d8e565b909155505060405163a9059cbb60e01b81526001600160a01b038481166004830152602482018390527f0000000000000000000000000000000000000000000000000000000000000000919082169063a9059cbb906044016020604051808303816000875af11580156109d1573d6000803e3d6000fd5b505050506040513d601f19601f820116820180604052508101906109f59190610d14565b610a115760405162461bcd60e51b815260040161059a90610d36565b60408051838152602081018590526001600160a01b038616917fd6f2c8500df5b44f11e9e48b91ff9f1b9d81bc496d55570c2b1b75bf65243f51910160405180910390a250505050565b336001600160a01b037f00000000000000000000000000000000000000000000000000000000000000001614610aa3576040516282b42960e81b815260040160405180910390fd5b7f00000000000000000000000000000000000000000000000000000000000000004211610ae35760405163cc76115360e01b815260040160405180910390fd5b6001546000819003610b085760405163162908e360e11b815260040160405180910390fd5b60006001556004805460ff1916815560405163a9059cbb60e01b81526001600160a01b037f0000000000000000000000000000000000000000000000000000000000000000811692820192909252602481018390527f00000000000000000000000000000000000000000000000000000000000000009182169063a9059cbb906044016020604051808303816000875af1158015610baa573d6000803e3d6000fd5b505050506040513d601f19601f82011682018060405250810190610bce9190610d14565b610bea5760405162461bcd60e51b815260040161059a90610d36565b7f00000000000000000000000000000000000000000000000000000000000000006001600160a01b03167f44cc22e2a72fe54daca38ff0faa55c52b7ceb78759bf43d2e8657ab68b17eeae83604051610c4591815260200190565b60405180910390a26040517f553ae054398f4abd9ec5710b0d247eaa1cd982245798110d0ceb48f43e37030990600090a15050565b80356001600160a01b0381168114610c9157600080fd5b919050565b600060208284031215610ca857600080fd5b610cb182610c7a565b9392505050565b600060208284031215610cca57600080fd5b5035919050565b60008060408385031215610ce457600080fd5b610ced83610c7a565b946020939093013593505050565b600060208284031215610d0d57600080fd5b5051919050565b600060208284031215610d2657600080fd5b81518015158114610cb157600080fd5b6020808252600f908201526e151c985b9cd9995c8819985a5b1959608a1b604082015260600190565b634e487b7160e01b600052601160045260246000fd5b81810381811115610d8857610d88610d5f565b92915050565b80820180821115610d8857610d88610d5f565b8082028115828204841417610d8857610d88610d5f565b600082610dd557634e487b7160e01b600052601260045260246000fd5b500490565b600060018201610dec57610dec610d5f565b506001019056fea2646970667358221220bf491ed5a33759dc5ae0d4517392fb4532c3a9cd0c7de18e2de930ee1e1100a664736f6c63430008140033","opcodes":"PUSH2 0x160 PUSH1 0x40 MSTORE CALLVALUE DUP1 ISZERO PUSH2 0x11 JUMPI PUSH1 0x0 DUP1 REVERT JUMPDEST POP PUSH1 0x40 MLOAD PUSH3 0x112B CODESIZE SUB DUP1 PUSH3 0x112B DUP4 CODECOPY DUP2 ADD PUSH1 0x40 DUP2 SWAP1 MSTORE PUSH2 0x32 SWAP2 PUSH2 0x1C7 JUMP JUMPDEST PUSH1 0x1 PUSH1 0x1 PUSH1 0xA0 SHL SUB DUP8 AND PUSH2 0x8D JUMPI PUSH1 0x40 MLOAD PUSH3 0x461BCD PUSH1 0xE5 SHL DUP2 MSTORE PUSH1 0x20 PUSH1 0x4 DUP3 ADD MSTORE PUSH1 0x15 PUSH1 0x24 DUP3 ADD MSTORE PUSH32 0x496E76616C6964206272616E6420616464726573730000000000000000000000 PUSH1 0x44 DUP3 ADD MSTORE PUSH1 0x64 ADD JUMPDEST PUSH1 0x40 MLOAD DUP1 SWAP2 SUB SWAP1 REVERT JUMPDEST PUSH1 0x1 PUSH1 0x1 PUSH1 0xA0 SHL SUB DUP7 AND PUSH2 0xE3 JUMPI PUSH1 0x40 MLOAD PUSH3 0x461BCD PUSH1 0xE5 SHL DUP2 MSTORE PUSH1 0x20 PUSH1 0x4 DUP3 ADD MSTORE PUSH1 0x15 PUSH1 0x24 DUP3 ADD MSTORE PUSH32 0x496E76616C696420746F6B656E20616464726573730000000000000000000000 PUSH1 0x44 DUP3 ADD MSTORE PUSH1 0x64 ADD PUSH2 0x84 JUMP JUMPDEST DUP4 DUP6 LT PUSH2 0x127 JUMPI PUSH1 0x40 MLOAD PUSH3 0x461BCD PUSH1 0xE5 SHL DUP2 MSTORE PUSH1 0x20 PUSH1 0x4 DUP3 ADD MSTORE PUSH1 0x12 PUSH1 0x24 DUP3 ADD MSTORE PUSH18 0x496E76616C69642074696D652072616E6765 PUSH1 0x70 SHL PUSH1 0x44 DUP3 ADD MSTORE PUSH1 0x64 ADD PUSH2 0x84 JUMP JUMPDEST PUSH1 0x0 DUP4 GT PUSH2 0x16C JUMPI PUSH1 0x40 MLOAD PUSH3 0x461BCD PUSH1 0xE5 SHL DUP2 MSTORE PUSH1 0x20 PUSH1 0x4 DUP3 ADD MSTORE PUSH1 0x12 PUSH1 0x24 DUP3 ADD MSTORE PUSH18 0x125B9D985B1A59081B585E081C185E5BDD5D PUSH1 0x72 SHL PUSH1 0x44 DUP3 ADD MSTORE PUSH1 0x64 ADD PUSH2 0x84 JUMP JUMPDEST PUSH1 0x1 PUSH1 0x1 PUSH1 0xA0 SHL SUB SWAP7 DUP8 AND PUSH1 0x80 MSTORE SWAP5 SWAP1 SWAP6 AND PUSH1 0xA0 MSTORE PUSH1 0xC0 SWAP3 SWAP1 SWAP3 MSTORE PUSH1 0xE0 MSTORE PUSH2 0x100 MSTORE PUSH2 0x120 SWAP2 SWAP1 SWAP2 MSTORE PUSH2 0x140 MSTORE PUSH1 0x4 DUP1 SLOAD PUSH1 0xFF NOT AND PUSH1 0x1 OR SWAP1 SSTORE PUSH2 0x229 JUMP JUMPDEST DUP1 MLOAD PUSH1 0x1 PUSH1 0x1 PUSH1 0xA0 SHL SUB DUP2 AND DUP2 EQ PUSH2 0x1C2 JUMPI PUSH1 0x0 DUP1 REVERT JUMPDEST SWAP2 SWAP1 POP JUMP JUMPDEST PUSH1 0x0 DUP1 PUSH1 0x0 DUP1 PUSH1 0x0 DUP1 PUSH1 0x0 PUSH1 0xE0 DUP9 DUP11 SUB SLT ISZERO PUSH2 0x1E2 JUMPI PUSH1 0x0 DUP1 REVERT JUMPDEST PUSH2 0x1EB DUP9 PUSH2 0x1AB JUMP JUMPDEST SWAP7 POP PUSH2 0x1F9 PUSH1 0x20 DUP10 ADD PUSH2 0x1AB JUMP JUMPDEST PUSH1 0x40 DUP10 ADD MLOAD PUSH1 0x60 DUP11 ADD MLOAD PUSH1 0x80 DUP12 ADD MLOAD PUSH1 0xA0 DUP13 ADD MLOAD PUSH1 0xC0 SWAP1 SWAP13 ADD MLOAD SWAP11 SWAP14 SWAP4 SWAP13 POP SWAP2 SWAP11 SWAP1 SWAP10 SWAP2 SWAP9 POP SWAP7 POP SWAP5 POP SWAP3 POP POP POP JUMP JUMPDEST PUSH1 0x80 MLOAD PUSH1 0xA0 MLOAD PUSH1 0xC0 MLOAD PUSH1 0xE0 MLOAD PUSH2 0x100 MLOAD PUSH2 0x120 MLOAD PUSH2 0x140 MLOAD PUSH2 0xE29 PUSH3 0x302 PUSH1 0x0 CODECOPY PUSH1 0x0 PUSH2 0x2F3 ADD MSTORE PUSH1 0x0 DUP2 DUP2 PUSH2 0x184 ADD MSTORE DUP2 DUP2 PUSH2 0x354 ADD MSTORE PUSH2 0x820 ADD MSTORE PUSH1 0x0 DUP2 DUP2 PUSH2 0x22F ADD MSTORE PUSH2 0x86A ADD MSTORE PUSH1 0x0 DUP2 DUP2 PUSH2 0x1EA ADD MSTORE DUP2 DUP2 PUSH2 0x398 ADD MSTORE DUP2 DUP2 PUSH2 0x7A4 ADD MSTORE PUSH2 0xAA5 ADD MSTORE PUSH1 0x0 DUP2 DUP2 PUSH2 0x25E ADD MSTORE DUP2 DUP2 PUSH2 0x376 ADD MSTORE PUSH2 0x77B ADD MSTORE PUSH1 0x0 DUP2 DUP2 PUSH2 0x2A9 ADD MSTORE DUP2 DUP2 PUSH2 0x48C ADD MSTORE DUP2 DUP2 PUSH2 0x985 ADD MSTORE PUSH2 0xB5F ADD MSTORE PUSH1 0x0 DUP2 DUP2 PUSH2 0x1AB ADD MSTORE DUP2 DUP2 PUSH2 0x332 ADD MSTORE DUP2 DUP2 PUSH2 0x419 ADD MSTORE DUP2 DUP2 PUSH2 0x69C ADD MSTORE DUP2 DUP2 PUSH2 0x719 ADD MSTORE DUP2 DUP2 PUSH2 0xA66 ADD MSTORE DUP2 DUP2 PUSH2 0xB2E ADD MSTORE PUSH2 0xBEC ADD MSTORE PUSH2 0xE29 PUSH1 0x0 RETURN INVALID PUSH1 0x80 PUSH1 0x40 MSTORE CALLVALUE DUP1 ISZERO PUSH2 0x10 JUMPI PUSH1 0x0 DUP1 REVERT JUMPDEST POP PUSH1 0x4 CALLDATASIZE LT PUSH2 0x121 JUMPI PUSH1 0x0 CALLDATALOAD PUSH1 0xE0 SHR DUP1 PUSH4 0x71AAC7F9 GT PUSH2 0xAD JUMPI DUP1 PUSH4 0x91763009 GT PUSH2 0x71 JUMPI DUP1 PUSH4 0x91763009 EQ PUSH2 0x2A4 JUMPI DUP1 PUSH4 0xB4FB3EE3 EQ PUSH2 0x2CB JUMPI DUP1 PUSH4 0xC76F9C16 EQ PUSH2 0x2EE JUMPI DUP1 PUSH4 0xC78DA39A EQ PUSH2 0x315 JUMPI DUP1 PUSH4 0xD6290CD7 EQ PUSH2 0x31E JUMPI PUSH1 0x0 DUP1 REVERT JUMPDEST DUP1 PUSH4 0x71AAC7F9 EQ PUSH2 0x251 JUMPI DUP1 PUSH4 0x78E97925 EQ PUSH2 0x259 JUMPI DUP1 PUSH4 0x88177A23 EQ PUSH2 0x280 JUMPI DUP1 PUSH4 0x8B8AFCD7 EQ PUSH2 0x289 JUMPI DUP1 PUSH4 0x8B9B1CBD EQ PUSH2 0x29C JUMPI PUSH1 0x0 DUP1 REVERT JUMPDEST DUP1 PUSH4 0x2D9FFF01 GT PUSH2 0xF4 JUMPI DUP1 PUSH4 0x2D9FFF01 EQ PUSH2 0x1A6 JUMPI DUP1 PUSH4 0x3197CBB6 EQ PUSH2 0x1E5 JUMPI DUP1 PUSH4 0x362F04C0 EQ PUSH2 0x20C JUMPI DUP1 PUSH4 0x3E2F2E92 EQ PUSH2 0x215 JUMPI DUP1 PUSH4 0x6B90A522 EQ PUSH2 0x22A JUMPI PUSH1 0x0 DUP1 REVERT JUMPDEST DUP1 PUSH4 0x660F1E8 EQ PUSH2 0x126 JUMPI DUP1 PUSH4 0x1357E1DC EQ PUSH2 0x159 JUMPI DUP1 PUSH4 0x22F3E2D4 EQ PUSH2 0x162 JUMPI DUP1 PUSH4 0x24924BF7 EQ PUSH2 0x17F JUMPI JUMPDEST PUSH1 0x0 DUP1 REVERT JUMPDEST PUSH2 0x146 PUSH2 0x134 CALLDATASIZE PUSH1 0x4 PUSH2 0xC96 JUMP JUMPDEST PUSH1 0x5 PUSH1 0x20 MSTORE PUSH1 0x0 SWAP1 DUP2 MSTORE PUSH1 0x40 SWAP1 KECCAK256 SLOAD DUP2 JUMP JUMPDEST PUSH1 0x40 MLOAD SWAP1 DUP2 MSTORE PUSH1 0x20 ADD JUMPDEST PUSH1 0x40 MLOAD DUP1 SWAP2 SUB SWAP1 RETURN JUMPDEST PUSH2 0x146 PUSH1 0x2 SLOAD DUP2 JUMP JUMPDEST PUSH1 0x4 SLOAD PUSH2 0x16F SWAP1 PUSH1 0xFF AND DUP2 JUMP JUMPDEST PUSH1 0x40 MLOAD SWAP1 ISZERO ISZERO DUP2 MSTORE PUSH1 0x20 ADD PUSH2 0x150 JUMP JUMPDEST PUSH2 0x146 PUSH32 0x0 DUP2 JUMP JUMPDEST PUSH2 0x1CD PUSH32 0x0 DUP2 JUMP JUMPDEST PUSH1 0x40 MLOAD PUSH1 0x1 PUSH1 0x1 PUSH1 0xA0 SHL SUB SWAP1 SWAP2 AND DUP2 MSTORE PUSH1 0x20 ADD PUSH2 0x150 JUMP JUMPDEST PUSH2 0x146 PUSH32 0x0 DUP2 JUMP JUMPDEST PUSH2 0x146 PUSH1 0x3 SLOAD DUP2 JUMP JUMPDEST PUSH2 0x228 PUSH2 0x223 CALLDATASIZE PUSH1 0x4 PUSH2 0xCB8 JUMP JUMPDEST PUSH2 0x40E JUMP JUMPDEST STOP JUMPDEST PUSH2 0x146 PUSH32 0x0 DUP2 JUMP JUMPDEST PUSH2 0x228 PUSH2 0x691 JUMP JUMPDEST PUSH2 0x146 PUSH32 0x0 DUP2 JUMP JUMPDEST PUSH2 0x146 PUSH1 0x1 SLOAD DUP2 JUMP JUMPDEST PUSH2 0x228 PUSH2 0x297 CALLDATASIZE PUSH1 0x4 PUSH2 0xCD1 JUMP JUMPDEST PUSH2 0x70E JUMP JUMPDEST PUSH2 0x228 PUSH2 0xA5B JUMP JUMPDEST PUSH2 0x1CD PUSH32 0x0 DUP2 JUMP JUMPDEST PUSH2 0x16F PUSH2 0x2D9 CALLDATASIZE PUSH1 0x4 PUSH2 0xC96 JUMP JUMPDEST PUSH1 0x6 PUSH1 0x20 MSTORE PUSH1 0x0 SWAP1 DUP2 MSTORE PUSH1 0x40 SWAP1 KECCAK256 SLOAD PUSH1 0xFF AND DUP2 JUMP JUMPDEST PUSH2 0x146 PUSH32 0x0 DUP2 JUMP JUMPDEST PUSH2 0x146 PUSH1 0x0 SLOAD DUP2 JUMP JUMPDEST PUSH2 0x3BE PUSH1 0x0 SLOAD PUSH1 0x1 SLOAD PUSH1 0x2 SLOAD PUSH1 0x3 SLOAD PUSH1 0x4 SLOAD PUSH32 0x0 SWAP6 PUSH32 0x0 SWAP2 PUSH32 0x0 SWAP2 PUSH32 0x0 SWAP2 PUSH1 0xFF AND SWAP1 JUMP JUMPDEST PUSH1 0x40 DUP1 MLOAD PUSH1 0x1 PUSH1 0x1 PUSH1 0xA0 SHL SUB SWAP1 SWAP11 AND DUP11 MSTORE PUSH1 0x20 DUP11 ADD SWAP9 SWAP1 SWAP9 MSTORE SWAP7 DUP9 ADD SWAP6 SWAP1 SWAP6 MSTORE PUSH1 0x60 DUP8 ADD SWAP4 SWAP1 SWAP4 MSTORE PUSH1 0x80 DUP7 ADD SWAP2 SWAP1 SWAP2 MSTORE PUSH1 0xA0 DUP6 ADD MSTORE PUSH1 0xC0 DUP5 ADD MSTORE PUSH1 0xE0 DUP4 ADD MSTORE ISZERO ISZERO PUSH2 0x100 DUP3 ADD MSTORE PUSH2 0x120 ADD PUSH2 0x150 JUMP JUMPDEST CALLER PUSH1 0x1 PUSH1 0x1 PUSH1 0xA0 SHL SUB PUSH32 0x0 AND EQ PUSH2 0x456 JUMPI PUSH1 0x40 MLOAD PUSH3 0x82B429 PUSH1 0xE8 SHL DUP2 MSTORE PUSH1 0x4 ADD PUSH1 0x40 MLOAD DUP1 SWAP2 SUB SWAP1 REVERT JUMPDEST DUP1 PUSH1 0x0 SUB PUSH2 0x477 JUMPI PUSH1 0x40 MLOAD PUSH4 0x162908E3 PUSH1 0xE1 SHL DUP2 MSTORE PUSH1 0x4 ADD PUSH1 0x40 MLOAD DUP1 SWAP2 SUB SWAP1 REVERT JUMPDEST PUSH1 0x40 MLOAD PUSH4 0x70A08231 PUSH1 0xE0 SHL DUP2 MSTORE ADDRESS PUSH1 0x4 DUP3 ADD MSTORE PUSH32 0x0 SWAP1 PUSH1 0x0 SWAP1 PUSH1 0x1 PUSH1 0x1 PUSH1 0xA0 SHL SUB DUP4 AND SWAP1 PUSH4 0x70A08231 SWAP1 PUSH1 0x24 ADD PUSH1 0x20 PUSH1 0x40 MLOAD DUP1 DUP4 SUB DUP2 DUP7 GAS STATICCALL ISZERO DUP1 ISZERO PUSH2 0x4E0 JUMPI RETURNDATASIZE PUSH1 0x0 DUP1 RETURNDATACOPY RETURNDATASIZE PUSH1 0x0 REVERT JUMPDEST POP POP POP POP PUSH1 0x40 MLOAD RETURNDATASIZE PUSH1 0x1F NOT PUSH1 0x1F DUP3 ADD AND DUP3 ADD DUP1 PUSH1 0x40 MSTORE POP DUP2 ADD SWAP1 PUSH2 0x504 SWAP2 SWAP1 PUSH2 0xCFB JUMP JUMPDEST PUSH1 0x40 MLOAD PUSH4 0x23B872DD PUSH1 0xE0 SHL DUP2 MSTORE CALLER PUSH1 0x4 DUP3 ADD MSTORE ADDRESS PUSH1 0x24 DUP3 ADD MSTORE PUSH1 0x44 DUP2 ADD DUP6 SWAP1 MSTORE SWAP1 SWAP2 POP PUSH1 0x1 PUSH1 0x1 PUSH1 0xA0 SHL SUB DUP4 AND SWAP1 PUSH4 0x23B872DD SWAP1 PUSH1 0x64 ADD PUSH1 0x20 PUSH1 0x40 MLOAD DUP1 DUP4 SUB DUP2 PUSH1 0x0 DUP8 GAS CALL ISZERO DUP1 ISZERO PUSH2 0x55A JUMPI RETURNDATASIZE PUSH1 0x0 DUP1 RETURNDATACOPY RETURNDATASIZE PUSH1 0x0 REVERT JUMPDEST POP POP POP POP PUSH1 0x40 MLOAD RETURNDATASIZE PUSH1 0x1F NOT PUSH1 0x1F DUP3 ADD AND DUP3 ADD DUP1 PUSH1 0x40 MSTORE POP DUP2 ADD SWAP1 PUSH2 0x57E SWAP2 SWAP1 PUSH2 0xD14 JUMP JUMPDEST PUSH2 0x5A3 JUMPI PUSH1 0x40 MLOAD PUSH3 0x461BCD PUSH1 0xE5 SHL DUP2 MSTORE PUSH1 0x4 ADD PUSH2 0x59A SWAP1 PUSH2 0xD36 JUMP JUMPDEST PUSH1 0x40 MLOAD DUP1 SWAP2 SUB SWAP1 REVERT JUMPDEST PUSH1 0x40 MLOAD PUSH4 0x70A08231 PUSH1 0xE0 SHL DUP2 MSTORE ADDRESS PUSH1 0x4 DUP3 ADD MSTORE PUSH1 0x0 SWAP1 PUSH1 0x1 PUSH1 0x1 PUSH1 0xA0 SHL SUB DUP5 AND SWAP1 PUSH4 0x70A08231 SWAP1 PUSH1 0x24 ADD PUSH1 0x20 PUSH1 0x40 MLOAD DUP1 DUP4 SUB DUP2 DUP7 GAS STATICCALL ISZERO DUP1 ISZERO PUSH2 0x5EA JUMPI RETURNDATASIZE PUSH1 0x0 DUP1 RETURNDATACOPY RETURNDATASIZE PUSH1 0x0 REVERT JUMPDEST POP POP POP POP PUSH1 0x40 MLOAD RETURNDATASIZE PUSH1 0x1F NOT PUSH1 0x1F DUP3 ADD AND DUP3 ADD DUP1 PUSH1 0x40 MSTORE POP DUP2 ADD SWAP1 PUSH2 0x60E SWAP2 SWAP1 PUSH2 0xCFB JUMP JUMPDEST SWAP1 POP PUSH1 0x0 PUSH2 0x61C DUP4 DUP4 PUSH2 0xD75 JUMP JUMPDEST SWAP1 POP DUP1 PUSH1 0x0 DUP1 DUP3 DUP3 SLOAD PUSH2 0x62F SWAP2 SWAP1 PUSH2 0xD8E JUMP JUMPDEST SWAP3 POP POP DUP2 SWAP1 SSTORE POP DUP1 PUSH1 0x1 PUSH1 0x0 DUP3 DUP3 SLOAD PUSH2 0x648 SWAP2 SWAP1 PUSH2 0xD8E JUMP JUMPDEST SWAP1 SWAP2 SSTORE POP POP PUSH1 0x0 SLOAD PUSH1 0x40 DUP1 MLOAD DUP4 DUP2 MSTORE PUSH1 0x20 DUP2 ADD SWAP3 SWAP1 SWAP3 MSTORE PUSH32 0x7FA8170314B2EC131BA6754AF9B3E7428A0BD93E1F6F31356422785F25CEBEDD SWAP2 ADD PUSH1 0x40 MLOAD DUP1 SWAP2 SUB SWAP1 LOG1 POP POP POP POP POP JUMP JUMPDEST CALLER PUSH1 0x1 PUSH1 0x1 PUSH1 0xA0 SHL SUB PUSH32 0x0 AND EQ PUSH2 0x6D9 JUMPI PUSH1 0x40 MLOAD PUSH3 0x82B429 PUSH1 0xE8 SHL DUP2 MSTORE PUSH1 0x4 ADD PUSH1 0x40 MLOAD DUP1 SWAP2 SUB SWAP1 REVERT JUMPDEST PUSH1 0x4 DUP1 SLOAD PUSH1 0xFF NOT AND SWAP1 SSTORE PUSH1 0x40 MLOAD PUSH32 0x553AE054398F4ABD9EC5710B0D247EAA1CD982245798110D0CEB48F43E370309 SWAP1 PUSH1 0x0 SWAP1 LOG1 JUMP JUMPDEST CALLER PUSH1 0x1 PUSH1 0x1 PUSH1 0xA0 SHL SUB PUSH32 0x0 AND EQ PUSH2 0x756 JUMPI PUSH1 0x40 MLOAD PUSH3 0x82B429 PUSH1 0xE8 SHL DUP2 MSTORE PUSH1 0x4 ADD PUSH1 0x40 MLOAD DUP1 SWAP2 SUB SWAP1 REVERT JUMPDEST PUSH1 0x4 SLOAD PUSH1 0xFF AND PUSH2 0x779 JUMPI PUSH1 0x40 MLOAD PUSH4 0x219A945B PUSH1 0xE1 SHL DUP2 MSTORE PUSH1 0x4 ADD PUSH1 0x40 MLOAD DUP1 SWAP2 SUB SWAP1 REVERT JUMPDEST PUSH32 0x0 TIMESTAMP LT DUP1 PUSH2 0x7C6 JUMPI POP PUSH32 0x0 TIMESTAMP GT JUMPDEST ISZERO PUSH2 0x7E4 JUMPI PUSH1 0x40 MLOAD PUSH4 0x219A945B PUSH1 0xE1 SHL DUP2 MSTORE PUSH1 0x4 ADD PUSH1 0x40 MLOAD DUP1 SWAP2 SUB SWAP1 REVERT JUMPDEST PUSH1 0x1 PUSH1 0x1 PUSH1 0xA0 SHL SUB DUP3 AND PUSH1 0x0 SWAP1 DUP2 MSTORE PUSH1 0x6 PUSH1 0x20 MSTORE PUSH1 0x40 SWAP1 KECCAK256 SLOAD PUSH1 0xFF AND ISZERO PUSH2 0x81E JUMPI PUSH1 0x40 MLOAD PUSH4 0x22CE1A07 PUSH1 0xE0 SHL DUP2 MSTORE PUSH1 0x4 ADD PUSH1 0x40 MLOAD DUP1 SWAP2 SUB SWAP1 REVERT JUMPDEST PUSH32 0x0 PUSH1 0x3 SLOAD LT PUSH2 0x860 JUMPI PUSH1 0x40 MLOAD PUSH4 0x6C8C8D21 PUSH1 0xE0 SHL DUP2 MSTORE PUSH1 0x4 ADD PUSH1 0x40 MLOAD DUP1 SWAP2 SUB SWAP1 REVERT JUMPDEST PUSH1 0x0 PUSH1 0x64 PUSH2 0x88E DUP4 PUSH32 0x0 PUSH2 0xDA1 JUMP JUMPDEST PUSH2 0x898 SWAP2 SWAP1 PUSH2 0xDB8 JUMP JUMPDEST SWAP1 POP PUSH1 0x1 SLOAD DUP2 GT ISZERO PUSH2 0x8BD JUMPI PUSH1 0x40 MLOAD PUSH4 0x4DD23C8B PUSH1 0xE0 SHL DUP2 MSTORE PUSH1 0x4 ADD PUSH1 0x40 MLOAD DUP1 SWAP2 SUB SWAP1 REVERT JUMPDEST DUP1 PUSH1 0x0 SUB PUSH2 0x8DE JUMPI PUSH1 0x40 MLOAD PUSH4 0x162908E3 PUSH1 0xE1 SHL DUP2 MSTORE PUSH1 0x4 ADD PUSH1 0x40 MLOAD DUP1 SWAP2 SUB SWAP1 REVERT JUMPDEST PUSH1 0x1 PUSH1 0x1 PUSH1 0xA0 SHL SUB DUP4 AND PUSH1 0x0 SWAP1 DUP2 MSTORE PUSH1 0x6 PUSH1 0x20 MSTORE PUSH1 0x40 DUP2 KECCAK256 DUP1 SLOAD PUSH1 0xFF NOT AND PUSH1 0x1 OR SWAP1 SSTORE PUSH1 0x3 DUP1 SLOAD SWAP2 PUSH2 0x90F DUP4 PUSH2 0xDDA JUMP JUMPDEST SWAP1 SWAP2 SSTORE POP POP PUSH1 0x1 PUSH1 0x1 PUSH1 0xA0 SHL SUB DUP4 AND PUSH1 0x0 SWAP1 DUP2 MSTORE PUSH1 0x5 PUSH1 0x20 MSTORE PUSH1 0x40 DUP2 KECCAK256 DUP3 SWAP1 SSTORE PUSH1 0x1 DUP1 SLOAD DUP4 SWAP3 SWAP1 PUSH2 0x941 SWAP1 DUP5 SWAP1 PUSH2 0xD75 JUMP JUMPDEST SWAP3 POP POP DUP2 SWAP1 SSTORE POP DUP1 PUSH1 0x2 PUSH1 0x0 DUP3 DUP3 SLOAD PUSH2 0x95A SWAP2 SWAP1 PUSH2 0xD8E JUMP JUMPDEST SWAP1 SWAP2 SSTORE POP POP PUSH1 0x40 MLOAD PUSH4 0xA9059CBB PUSH1 0xE0 SHL DUP2 MSTORE PUSH1 0x1 PUSH1 0x1 PUSH1 0xA0 SHL SUB DUP5 DUP2 AND PUSH1 0x4 DUP4 ADD MSTORE PUSH1 0x24 DUP3 ADD DUP4 SWAP1 MSTORE PUSH32 0x0 SWAP2 SWAP1 DUP3 AND SWAP1 PUSH4 0xA9059CBB SWAP1 PUSH1 0x44 ADD PUSH1 0x20 PUSH1 0x40 MLOAD DUP1 DUP4 SUB DUP2 PUSH1 0x0 DUP8 GAS CALL ISZERO DUP1 ISZERO PUSH2 0x9D1 JUMPI RETURNDATASIZE PUSH1 0x0 DUP1 RETURNDATACOPY RETURNDATASIZE PUSH1 0x0 REVERT JUMPDEST POP POP POP POP PUSH1 0x40 MLOAD RETURNDATASIZE PUSH1 0x1F NOT PUSH1 0x1F DUP3 ADD AND DUP3 ADD DUP1 PUSH1 0x40 MSTORE POP DUP2 ADD SWAP1 PUSH2 0x9F5 SWAP2 SWAP1 PUSH2 0xD14 JUMP JUMPDEST PUSH2 0xA11 JUMPI PUSH1 0x40 MLOAD PUSH3 0x461BCD PUSH1 0xE5 SHL DUP2 MSTORE PUSH1 0x4 ADD PUSH2 0x59A SWAP1 PUSH2 0xD36 JUMP JUMPDEST PUSH1 0x40 DUP1 MLOAD DUP4 DUP2 MSTORE PUSH1 0x20 DUP2 ADD DUP6 SWAP1 MSTORE PUSH1 0x1 PUSH1 0x1 PUSH1 0xA0 SHL SUB DUP7 AND SWAP2 PUSH32 0xD6F2C8500DF5B44F11E9E48B91FF9F1B9D81BC496D55570C2B1B75BF65243F51 SWAP2 ADD PUSH1 0x40 MLOAD DUP1 SWAP2 SUB SWAP1 LOG2 POP POP POP POP JUMP JUMPDEST CALLER PUSH1 0x1 PUSH1 0x1 PUSH1 0xA0 SHL SUB PUSH32 0x0 AND EQ PUSH2 0xAA3 JUMPI PUSH1 0x40 MLOAD PUSH3 0x82B429 PUSH1 0xE8 SHL DUP2 MSTORE PUSH1 0x4 ADD PUSH1 0x40 MLOAD DUP1 SWAP2 SUB SWAP1 REVERT JUMPDEST PUSH32 0x0 TIMESTAMP GT PUSH2 0xAE3 JUMPI PUSH1 0x40 MLOAD PUSH4 0xCC761153 PUSH1 0xE0 SHL DUP2 MSTORE PUSH1 0x4 ADD PUSH1 0x40 MLOAD DUP1 SWAP2 SUB SWAP1 REVERT JUMPDEST PUSH1 0x1 SLOAD PUSH1 0x0 DUP2 SWAP1 SUB PUSH2 0xB08 JUMPI PUSH1 0x40 MLOAD PUSH4 0x162908E3 PUSH1 0xE1 SHL DUP2 MSTORE PUSH1 0x4 ADD PUSH1 0x40 MLOAD DUP1 SWAP2 SUB SWAP1 REVERT JUMPDEST PUSH1 0x0 PUSH1 0x1 SSTORE PUSH1 0x4 DUP1 SLOAD PUSH1 0xFF NOT AND DUP2 SSTORE PUSH1 0x40 MLOAD PUSH4 0xA9059CBB PUSH1 0xE0 SHL DUP2 MSTORE PUSH1 0x1 PUSH1 0x1 PUSH1 0xA0 SHL SUB PUSH32 0x0 DUP2 AND SWAP3 DUP3 ADD SWAP3 SWAP1 SWAP3 MSTORE PUSH1 0x24 DUP2 ADD DUP4 SWAP1 MSTORE PUSH32 0x0 SWAP2 DUP3 AND SWAP1 PUSH4 0xA9059CBB SWAP1 PUSH1 0x44 ADD PUSH1 0x20 PUSH1 0x40 MLOAD DUP1 DUP4 SUB DUP2 PUSH1 0x0 DUP8 GAS CALL ISZERO DUP1 ISZERO PUSH2 0xBAA JUMPI RETURNDATASIZE PUSH1 0x0 DUP1 RETURNDATACOPY RETURNDATASIZE PUSH1 0x0 REVERT JUMPDEST POP POP POP POP PUSH1 0x40 MLOAD RETURNDATASIZE PUSH1 0x1F NOT PUSH1 0x1F DUP3 ADD AND DUP3 ADD DUP1 PUSH1 0x40 MSTORE POP DUP2 ADD SWAP1 PUSH2 0xBCE SWAP2 SWAP1 PUSH2 0xD14 JUMP JUMPDEST PUSH2 0xBEA JUMPI PUSH1 0x40 MLOAD PUSH3 0x461BCD PUSH1 0xE5 SHL DUP2 MSTORE PUSH1 0x4 ADD PUSH2 0x59A SWAP1 PUSH2 0xD36 JUMP JUMPDEST PUSH32 0x0 PUSH1 0x1 PUSH1 0x1 PUSH1 0xA0 SHL SUB AND PUSH32 0x44CC22E2A72FE54DACA38FF0FAA55C52B7CEB78759BF43D2E8657AB68B17EEAE DUP4 PUSH1 0x40 MLOAD PUSH2 0xC45 SWAP2 DUP2 MSTORE PUSH1 0x20 ADD SWAP1 JUMP JUMPDEST PUSH1 0x40 MLOAD DUP1 SWAP2 SUB SWAP1 LOG2 PUSH1 0x40 MLOAD PUSH32 0x553AE054398F4ABD9EC5710B0D247EAA1CD982245798110D0CEB48F43E370309 SWAP1 PUSH1 0x0 SWAP1 LOG1 POP POP JUMP JUMPDEST DUP1 CALLDATALOAD PUSH1 0x1 PUSH1 0x1 PUSH1 0xA0 SHL SUB DUP2 AND DUP2 EQ PUSH2 0xC91 JUMPI PUSH1 0x0 DUP1 REVERT JUMPDEST SWAP2 SWAP1 POP JUMP JUMPDEST PUSH1 0x0 PUSH1 0x20 DUP3 DUP5 SUB SLT ISZERO PUSH2 0xCA8 JUMPI PUSH1 0x0 DUP1 REVERT JUMPDEST PUSH2 0xCB1 DUP3 PUSH2 0xC7A JUMP JUMPDEST SWAP4 SWAP3 POP POP POP JUMP JUMPDEST PUSH1 0x0 PUSH1 0x20 DUP3 DUP5 SUB SLT ISZERO PUSH2 0xCCA JUMPI PUSH1 0x0 DUP1 REVERT JUMPDEST POP CALLDATALOAD SWAP2 SWAP1 POP JUMP JUMPDEST PUSH1 0x0 DUP1 PUSH1 0x40 DUP4 DUP6 SUB SLT ISZERO PUSH2 0xCE4 JUMPI PUSH1 0x0 DUP1 REVERT JUMPDEST PUSH2 0xCED DUP4 PUSH2 0xC7A JUMP JUMPDEST SWAP5 PUSH1 0x20 SWAP4 SWAP1 SWAP4 ADD CALLDATALOAD SWAP4 POP POP POP JUMP JUMPDEST PUSH1 0x0 PUSH1 0x20 DUP3 DUP5 SUB SLT ISZERO PUSH2 0xD0D JUMPI PUSH1 0x0 DUP1 REVERT JUMPDEST POP MLOAD SWAP2 SWAP1 POP JUMP JUMPDEST PUSH1 0x0 PUSH1 0x20 DUP3 DUP5 SUB SLT ISZERO PUSH2 0xD26 JUMPI PUSH1 0x0 DUP1 REVERT JUMPDEST DUP2 MLOAD DUP1 ISZERO ISZERO DUP2 EQ PUSH2 0xCB1 JUMPI PUSH1 0x0 DUP1 REVERT JUMPDEST PUSH1 0x20 DUP1 DUP3 MSTORE PUSH1 0xF SWAP1 DUP3 ADD MSTORE PUSH15 0x151C985B9CD9995C8819985A5B1959 PUSH1 0x8A SHL PUSH1 0x40 DUP3 ADD MSTORE PUSH1 0x60 ADD SWAP1 JUMP JUMPDEST PUSH4 0x4E487B71 PUSH1 0xE0 SHL PUSH1 0x0 MSTORE PUSH1 0x11 PUSH1 0x4 MSTORE PUSH1 0x24 PUSH1 0x0 REVERT JUMPDEST DUP2 DUP2 SUB DUP2 DUP2 GT ISZERO PUSH2 0xD88 JUMPI PUSH2 0xD88 PUSH2 0xD5F JUMP JUMPDEST SWAP3 SWAP2 POP POP JUMP JUMPDEST DUP1 DUP3 ADD DUP1 DUP3 GT ISZERO PUSH2 0xD88 JUMPI PUSH2 0xD88 PUSH2 0xD5F JUMP JUMPDEST DUP1 DUP3 MUL DUP2 ISZERO DUP3 DUP3 DIV DUP5 EQ OR PUSH2 0xD88 JUMPI PUSH2 0xD88 PUSH2 0xD5F JUMP JUMPDEST PUSH1 0x0 DUP3 PUSH2 0xDD5 JUMPI PUSH4 0x4E487B71 PUSH1 0xE0 SHL PUSH1 0x0 MSTORE PUSH1 0x12 PUSH1 0x4 MSTORE PUSH1 0x24 PUSH1 0x0 REVERT JUMPDEST POP DIV SWAP1 JUMP JUMPDEST PUSH1 0x0 PUSH1 0x1 DUP3 ADD PUSH2 0xDEC JUMPI PUSH2 0xDEC PUSH2 0xD5F JUMP JUMPDEST POP PUSH1 0x1 ADD SWAP1 JUMP INVALID LOG2 PUSH5 0x6970667358 0x22 SLT KECCAK256 0xBF 0x49 0x1E 0xD5 LOG3 CALLDATACOPY MSIZE 0xDC GAS 0xE0 0xD4 MLOAD PUSH20 0x92FB4532C3A9CD0C7DE18E2DE930EE1E1100A664 PUSH20 0x6F6C634300081400330000000000000000000000 "},"methodIdentifiers":{"brand()":"2d9fff01","depositBudget(uint256)":"3e2f2e92","endCampaign()":"71aac7f9","endTime()":"3197cbb6","getCampaignInfo()":"d6290cd7","hasParticipated(address)":"b4fb3ee3","isActive()":"22f3e2d4","maxParticipants()":"24924bf7","maxPayoutPerReview()":"6b90a522","participantCount()":"362f04c0","payReward(address,uint256)":"8b8afcd7","pyusdToken()":"91763009","remainingBudget()":"88177a23","rulesHash()":"c76f9c16","startTime()":"78e97925","totalBudget()":"c78da39a","totalPaidOut()":"1357e1dc","userRewards(address)":"0660f1e8","withdrawRemainder()":"8b9b1cbd"}}}}}